{
  "_format": "hh-sol-artifact-1",
  "contractName": "Whitelist",
  "sourceName": "contracts/Whitelist.sol",
  "abi": [
    {
      "inputs": [
        {
          "internalType": "uint256",
          "name": "_maxWhitelistedAddress",
          "type": "uint256"
        }
      ],
      "stateMutability": "nonpayable",
      "type": "constructor"
    },
    {
      "inputs": [],
      "name": "addAddressToWhitelist",
      "outputs": [],
      "stateMutability": "nonpayable",
      "type": "function"
    },
    {
      "inputs": [],
      "name": "maxWhitelistedAddresses",
      "outputs": [
        {
          "internalType": "uint256",
          "name": "",
          "type": "uint256"
        }
      ],
      "stateMutability": "view",
      "type": "function"
    },
    {
      "inputs": [],
      "name": "numAddressesWhitelisted",
      "outputs": [
        {
          "internalType": "uint256",
          "name": "",
          "type": "uint256"
        }
      ],
      "stateMutability": "view",
      "type": "function"
    },
    {
      "inputs": [
        {
          "internalType": "address",
          "name": "",
          "type": "address"
        }
      ],
      "name": "whitelistedAddresses",
      "outputs": [
        {
          "internalType": "bool",
          "name": "",
          "type": "bool"
        }
      ],
      "stateMutability": "view",
      "type": "function"
    }
  ],
  "bytecode": "0x608060405234801561001057600080fd5b506040516105913803806105918339818101604052810190610032919061007a565b80600081905550506100a7565b600080fd5b6000819050919050565b61005781610044565b811461006257600080fd5b50565b6000815190506100748161004e565b92915050565b6000602082840312156100905761008f61003f565b5b600061009e84828501610065565b91505092915050565b6104db806100b66000396000f3fe608060405234801561001057600080fd5b506004361061004c5760003560e01c806306c933d81461005157806331a72188146100815780634011d7cd1461009f5780638e7314d9146100bd575b600080fd5b61006b6004803603810190610066919061029c565b6100c7565b60405161007891906102e4565b60405180910390f35b6100896100e7565b6040516100969190610318565b60405180910390f35b6100a76100ed565b6040516100b49190610318565b60405180910390f35b6100c56100f3565b005b60016020528060005260406000206000915054906101000a900460ff1681565b60005481565b60025481565b600160003373ffffffffffffffffffffffffffffffffffffffff1673ffffffffffffffffffffffffffffffffffffffff16815260200190815260200160002060009054906101000a900460ff1615610180576040517f08c379a0000000000000000000000000000000000000000000000000000000008152600401610177906103b6565b60405180910390fd5b600054600254106101c6576040517f08c379a00000000000000000000000000000000000000000000000000000000081526004016101bd90610422565b60405180910390fd5b60018060003373ffffffffffffffffffffffffffffffffffffffff1673ffffffffffffffffffffffffffffffffffffffff16815260200190815260200160002060006101000a81548160ff0219169083151502179055506001600260008282546102309190610471565b92505081905550565b600080fd5b600073ffffffffffffffffffffffffffffffffffffffff82169050919050565b60006102698261023e565b9050919050565b6102798161025e565b811461028457600080fd5b50565b60008135905061029681610270565b92915050565b6000602082840312156102b2576102b1610239565b5b60006102c084828501610287565b91505092915050565b60008115159050919050565b6102de816102c9565b82525050565b60006020820190506102f960008301846102d5565b92915050565b6000819050919050565b610312816102ff565b82525050565b600060208201905061032d6000830184610309565b92915050565b600082825260208201905092915050565b7f596f752068617665206265656e20616464656420746f2074686520776869746560008201527f6c69737420616c72656164792100000000000000000000000000000000000000602082015250565b60006103a0602d83610333565b91506103ab82610344565b604082019050919050565b600060208201905081810360008301526103cf81610393565b9050919050565b7f4c696d69742063726f7373656400000000000000000000000000000000000000600082015250565b600061040c600d83610333565b9150610417826103d6565b602082019050919050565b6000602082019050818103600083015261043b816103ff565b9050919050565b7f4e487b7100000000000000000000000000000000000000000000000000000000600052601160045260246000fd5b600061047c826102ff565b9150610487836102ff565b925082820190508082111561049f5761049e610442565b5b9291505056fea264697066735822122042285fda5b316c3bdc6d4dfefec863dc8663682cd0dd10e7f41e0773b424b98664736f6c63430008110033",
  "linkReferences": {},
  "deployedLinkReferences": {}
}